{"abi":[{"type":"constructor","inputs":[{"name":"_question","type":"string","internalType":"string"},{"name":"_description","type":"string","internalType":"string"},{"name":"_duration","type":"uint256","internalType":"uint256"},{"name":"_oracle","type":"address","internalType":"address"},{"name":"_collateralToken","type":"address","internalType":"address"}],"stateMutability":"nonpayable"},{"type":"function","name":"buyShares","inputs":[{"name":"isYes","type":"bool","internalType":"bool"},{"name":"amount","type":"uint256","internalType":"uint256"}],"outputs":[],"stateMutability":"nonpayable"},{"type":"function","name":"claim","inputs":[],"outputs":[],"stateMutability":"nonpayable"},{"type":"function","name":"details","inputs":[],"outputs":[{"name":"question","type":"string","internalType":"string"},{"name":"description","type":"string","internalType":"string"},{"name":"endTime","type":"uint256","internalType":"uint256"},{"name":"creator","type":"address","internalType":"address"},{"name":"oracle","type":"address","internalType":"address"},{"name":"collateralToken","type":"address","internalType":"contract IERC20"}],"stateMutability":"view"},{"type":"function","name":"noShares","inputs":[{"name":"","type":"address","internalType":"address"}],"outputs":[{"name":"","type":"uint256","internalType":"uint256"}],"stateMutability":"view"},{"type":"function","name":"outcome","inputs":[],"outputs":[{"name":"","type":"bool","internalType":"bool"}],"stateMutability":"view"},{"type":"function","name":"resolve","inputs":[{"name":"_outcome","type":"bool","internalType":"bool"}],"outputs":[],"stateMutability":"nonpayable"},{"type":"function","name":"state","inputs":[],"outputs":[{"name":"","type":"uint8","internalType":"enum PredictionMarket.MarketState"}],"stateMutability":"view"},{"type":"function","name":"totalNoShares","inputs":[],"outputs":[{"name":"","type":"uint256","internalType":"uint256"}],"stateMutability":"view"},{"type":"function","name":"totalNoStaked","inputs":[],"outputs":[{"name":"","type":"uint256","internalType":"uint256"}],"stateMutability":"view"},{"type":"function","name":"totalYesShares","inputs":[],"outputs":[{"name":"","type":"uint256","internalType":"uint256"}],"stateMutability":"view"},{"type":"function","name":"totalYesStaked","inputs":[],"outputs":[{"name":"","type":"uint256","internalType":"uint256"}],"stateMutability":"view"},{"type":"function","name":"yesShares","inputs":[{"name":"","type":"address","internalType":"address"}],"outputs":[{"name":"","type":"uint256","internalType":"uint256"}],"stateMutability":"view"},{"type":"event","name":"MarketResolved","inputs":[{"name":"outcome","type":"bool","indexed":false,"internalType":"bool"}],"anonymous":false},{"type":"event","name":"SharesPurchased","inputs":[{"name":"buyer","type":"address","indexed":true,"internalType":"address"},{"name":"isYes","type":"bool","indexed":false,"internalType":"bool"},{"name":"amount","type":"uint256","indexed":false,"internalType":"uint256"},{"name":"cost","type":"uint256","indexed":false,"internalType":"uint256"}],"anonymous":false},{"type":"event","name":"WinningsClaimed","inputs":[{"name":"user","type":"address","indexed":true,"internalType":"address"},{"name":"amount","type":"uint256","indexed":false,"internalType":"uint256"}],"anonymous":false}],"bytecode":{"object":"0x608060405234801561000f575f5ffd5b50604051611f92380380611f928339818101604052810190610031919061033f565b8460015f01908161004291906105f5565b508360018001908161005491906105f5565b50824261006191906106f1565b6001600201819055503360016003015f6101000a81548173ffffffffffffffffffffffffffffffffffffffff021916908373ffffffffffffffffffffffffffffffffffffffff1602179055508160016004015f6101000a81548173ffffffffffffffffffffffffffffffffffffffff021916908373ffffffffffffffffffffffffffffffffffffffff1602179055508060016005015f6101000a81548173ffffffffffffffffffffffffffffffffffffffff021916908373ffffffffffffffffffffffffffffffffffffffff1602179055505f5f5f6101000a81548160ff0219169083600281111561015657610155610724565b5b02179055505050505050610751565b5f604051905090565b5f5ffd5b5f5ffd5b5f5ffd5b5f5ffd5b5f601f19601f8301169050919050565b7f4e487b71000000000000000000000000000000000000000000000000000000005f52604160045260245ffd5b6101c48261017e565b810181811067ffffffffffffffff821117156101e3576101e261018e565b5b80604052505050565b5f6101f5610165565b905061020182826101bb565b919050565b5f67ffffffffffffffff8211156102205761021f61018e565b5b6102298261017e565b9050602081019050919050565b8281835e5f83830152505050565b5f61025661025184610206565b6101ec565b9050828152602081018484840111156102725761027161017a565b5b61027d848285610236565b509392505050565b5f82601f83011261029957610298610176565b5b81516102a9848260208601610244565b91505092915050565b5f819050919050565b6102c4816102b2565b81146102ce575f5ffd5b50565b5f815190506102df816102bb565b92915050565b5f73ffffffffffffffffffffffffffffffffffffffff82169050919050565b5f61030e826102e5565b9050919050565b61031e81610304565b8114610328575f5ffd5b50565b5f8151905061033981610315565b92915050565b5f5f5f5f5f60a086880312156103585761035761016e565b5b5f86015167ffffffffffffffff81111561037557610374610172565b5b61038188828901610285565b955050602086015167ffffffffffffffff8111156103a2576103a1610172565b5b6103ae88828901610285565b94505060406103bf888289016102d1565b93505060606103d08882890161032b565b92505060806103e18882890161032b565b9150509295509295909350565b5f81519050919050565b7f4e487b71000000000000000000000000000000000000000000000000000000005f52602260045260245ffd5b5f600282049050600182168061043c57607f821691505b60208210810361044f5761044e6103f8565b5b50919050565b5f819050815f5260205f209050919050565b5f6020601f8301049050919050565b5f82821b905092915050565b5f600883026104b17fffffffffffffffffffffffffffffffffffffffffffffffffffffffffffffffff82610476565b6104bb8683610476565b95508019841693508086168417925050509392505050565b5f819050919050565b5f6104f66104f16104ec846102b2565b6104d3565b6102b2565b9050919050565b5f819050919050565b61050f836104dc565b61052361051b826104fd565b848454610482565b825550505050565b5f5f905090565b61053a61052b565b610545818484610506565b505050565b5b818110156105685761055d5f82610532565b60018101905061054b565b5050565b601f8211156105ad5761057e81610455565b61058784610467565b81016020851015610596578190505b6105aa6105a285610467565b83018261054a565b50505b505050565b5f82821c905092915050565b5f6105cd5f19846008026105b2565b1980831691505092915050565b5f6105e583836105be565b9150826002028217905092915050565b6105fe826103ee565b67ffffffffffffffff8111156106175761061661018e565b5b6106218254610425565b61062c82828561056c565b5f60209050601f83116001811461065d575f841561064b578287015190505b61065585826105da565b8655506106bc565b601f19841661066b86610455565b5f5b828110156106925784890151825560018201915060208501945060208101905061066d565b868310156106af57848901516106ab601f8916826105be565b8355505b6001600288020188555050505b505050505050565b7f4e487b71000000000000000000000000000000000000000000000000000000005f52601160045260245ffd5b5f6106fb826102b2565b9150610706836102b2565b925082820190508082111561071e5761071d6106c4565b5b92915050565b7f4e487b71000000000000000000000000000000000000000000000000000000005f52602160045260245ffd5b6118348061075e5f395ff3fe608060405234801561000f575f5ffd5b50600436106100b2575f3560e01c80635ae01f821161006f5780635ae01f821461016b57806368b89a2c14610189578063818fa941146101a55780639aa9604f146101d5578063c19d93fb146101f3578063d31dbc3e14610211576100b2565b80630bede3f8146100b657806327793f87146100d2578063410302ee146100f05780634e71d92d1461010e578063565974d31461011857806356bc793e1461013b575b5f5ffd5b6100d060048036038101906100cb9190610fb0565b61022f565b005b6100da6103b0565b6040516100e79190610fea565b60405180910390f35b6100f86103c2565b604051610105919061101b565b60405180910390f35b6101166103c8565b005b610120610819565b6040516101329695949392919061113e565b60405180910390f35b610155600480360381019061015091906111d5565b6109ab565b604051610162919061101b565b60405180910390f35b6101736109c0565b604051610180919061101b565b60405180910390f35b6101a3600480360381019061019e919061122a565b6109c6565b005b6101bf60048036038101906101ba91906111d5565b610c8a565b6040516101cc919061101b565b60405180910390f35b6101dd610c9f565b6040516101ea919061101b565b60405180910390f35b6101fb610ca5565b60405161020891906112db565b60405180910390f35b610219610cb6565b604051610226919061101b565b60405180910390f35b60016004015f9054906101000a900473ffffffffffffffffffffffffffffffffffffffff1673ffffffffffffffffffffffffffffffffffffffff163373ffffffffffffffffffffffffffffffffffffffff16146102c1576040517f08c379a00000000000000000000000000000000000000000000000000000000081526004016102b89061133e565b60405180910390fd5b5f60028111156102d4576102d3611268565b5b5f5f9054906101000a900460ff1660028111156102f4576102f3611268565b5b14610334576040517f08c379a000000000000000000000000000000000000000000000000000000000815260040161032b906113a6565b60405180910390fd5b8060075f6101000a81548160ff02191690831515021790555060015f5f6101000a81548160ff0219169083600281111561037157610370611268565b5b02179055507ff528f3b02f5c2503827fc677c9d0cb54ffbf11ed32cb659f73243b70dea7cf0e816040516103a59190610fea565b60405180910390a150565b60075f9054906101000a900460ff1681565b600d5481565b600160028111156103dc576103db611268565b5b5f5f9054906101000a900460ff1660028111156103fc576103fb611268565b5b1461043c576040517f08c379a00000000000000000000000000000000000000000000000000000000081526004016104339061140e565b60405180910390fd5b5f5f905061047f6040518060400160405280600881526020017f436c61696d65723a00000000000000000000000000000000000000000000000081525033610cbc565b6104cc6040518060400160405280601181526020017f5265736f6c766564204f7574636f6d653a00000000000000000000000000000081525060075f9054906101000a900460ff16610d58565b60075f9054906101000a900460ff16156105e0575f60085f3373ffffffffffffffffffffffffffffffffffffffff1673ffffffffffffffffffffffffffffffffffffffff1681526020019081526020015f205490506105606040518060400160405280601281526020017f55736572205368617265732028594553293a000000000000000000000000000081525082610df4565b5f8111156105da575f600d54600c546105799190611459565b9050600a54818361058a919061148c565b61059491906114fa565b92505f60085f3373ffffffffffffffffffffffffffffffffffffffff1673ffffffffffffffffffffffffffffffffffffffff1681526020019081526020015f2081905550505b5061069d565b5f60095f3373ffffffffffffffffffffffffffffffffffffffff1673ffffffffffffffffffffffffffffffffffffffff1681526020019081526020015f205490505f81111561069b575f600d54600c5461063a9190611459565b9050600b54818361064b919061148c565b61065591906114fa565b92505f60095f3373ffffffffffffffffffffffffffffffffffffffff1673ffffffffffffffffffffffffffffffffffffffff1681526020019081526020015f2081905550505b505b5f8111156107d7576106e46040518060400160405280601081526020017f436c61696d696e67207061796f75743a0000000000000000000000000000000081525082610df4565b60016005015f9054906101000a900473ffffffffffffffffffffffffffffffffffffffff1673ffffffffffffffffffffffffffffffffffffffff1663a9059cbb33836040518363ffffffff1660e01b815260040161074392919061152a565b6020604051808303815f875af115801561075f573d5f5f3e3d5ffd5b505050506040513d601f19601f820116820180604052508101906107839190611565565b503373ffffffffffffffffffffffffffffffffffffffff167f1a31e733a172afcf46074b3106c17f0c298e226442682a03c1e99ce256139ec2826040516107ca919061101b565b60405180910390a2610816565b6108156040518060400160405280600e81526020017f5061796f7574206973207a65726f000000000000000000000000000000000000815250610e90565b5b50565b6001805f018054610829906115bd565b80601f0160208091040260200160405190810160405280929190818152602001828054610855906115bd565b80156108a05780601f10610877576101008083540402835291602001916108a0565b820191905f5260205f20905b81548152906001019060200180831161088357829003601f168201915b5050505050908060010180546108b5906115bd565b80601f01602080910402602001604051908101604052809291908181526020018280546108e1906115bd565b801561092c5780601f106109035761010080835404028352916020019161092c565b820191905f5260205f20905b81548152906001019060200180831161090f57829003601f168201915b505050505090806002015490806003015f9054906101000a900473ffffffffffffffffffffffffffffffffffffffff1690806004015f9054906101000a900473ffffffffffffffffffffffffffffffffffffffff1690806005015f9054906101000a900473ffffffffffffffffffffffffffffffffffffffff16905086565b6009602052805f5260405f205f915090505481565b600b5481565b5f60028111156109d9576109d8611268565b5b5f5f9054906101000a900460ff1660028111156109f9576109f8611268565b5b14610a39576040517f08c379a0000000000000000000000000000000000000000000000000000000008152600401610a3090611637565b60405180910390fd5b6001600201544210610a80576040517f08c379a0000000000000000000000000000000000000000000000000000000008152600401610a779061169f565b60405180910390fd5b60016005015f9054906101000a900473ffffffffffffffffffffffffffffffffffffffff1673ffffffffffffffffffffffffffffffffffffffff166323b872dd3330846040518463ffffffff1660e01b8152600401610ae1939291906116bd565b6020604051808303815f875af1158015610afd573d5f5f3e3d5ffd5b505050506040513d601f19601f82011682018060405250810190610b219190611565565b508115610bb0578060085f3373ffffffffffffffffffffffffffffffffffffffff1673ffffffffffffffffffffffffffffffffffffffff1681526020019081526020015f205f828254610b749190611459565b9250508190555080600c5f828254610b8c9190611459565b9250508190555080600a5f828254610ba49190611459565b92505081905550610c34565b8060095f3373ffffffffffffffffffffffffffffffffffffffff1673ffffffffffffffffffffffffffffffffffffffff1681526020019081526020015f205f828254610bfc9190611459565b9250508190555080600d5f828254610c149190611459565b9250508190555080600b5f828254610c2c9190611459565b925050819055505b3373ffffffffffffffffffffffffffffffffffffffff167f9bd054fb950acb82b978a4ba93668286e2c3fa8c43589f21061c8520068ba80c838384604051610c7e939291906116f2565b60405180910390a25050565b6008602052805f5260405f205f915090505481565b600c5481565b5f5f9054906101000a900460ff1681565b600a5481565b610d548282604051602401610cd2929190611727565b6040516020818303038152906040527f319af333000000000000000000000000000000000000000000000000000000007bffffffffffffffffffffffffffffffffffffffffffffffffffffffff19166020820180517bffffffffffffffffffffffffffffffffffffffffffffffffffffffff8381831617835250505050610f29565b5050565b610df08282604051602401610d6e929190611755565b6040516020818303038152906040527fc3b55635000000000000000000000000000000000000000000000000000000007bffffffffffffffffffffffffffffffffffffffffffffffffffffffff19166020820180517bffffffffffffffffffffffffffffffffffffffffffffffffffffffff8381831617835250505050610f29565b5050565b610e8c8282604051602401610e0a929190611783565b6040516020818303038152906040527fb60e72cc000000000000000000000000000000000000000000000000000000007bffffffffffffffffffffffffffffffffffffffffffffffffffffffff19166020820180517bffffffffffffffffffffffffffffffffffffffffffffffffffffffff8381831617835250505050610f29565b5050565b610f2681604051602401610ea491906117b1565b6040516020818303038152906040527f41304fac000000000000000000000000000000000000000000000000000000007bffffffffffffffffffffffffffffffffffffffffffffffffffffffff19166020820180517bffffffffffffffffffffffffffffffffffffffffffffffffffffffff8381831617835250505050610f29565b50565b610f4081610f38610f43610f62565b63ffffffff16565b50565b5f6a636f6e736f6c652e6c6f6790505f5f835160208501845afa505050565b610f6d819050919050565b610f756117d1565b565b5f5ffd5b5f8115159050919050565b610f8f81610f7b565b8114610f99575f5ffd5b50565b5f81359050610faa81610f86565b92915050565b5f60208284031215610fc557610fc4610f77565b5b5f610fd284828501610f9c565b91505092915050565b610fe481610f7b565b82525050565b5f602082019050610ffd5f830184610fdb565b92915050565b5f819050919050565b61101581611003565b82525050565b5f60208201905061102e5f83018461100c565b92915050565b5f81519050919050565b5f82825260208201905092915050565b8281835e5f83830152505050565b5f601f19601f8301169050919050565b5f61107682611034565b611080818561103e565b935061109081856020860161104e565b6110998161105c565b840191505092915050565b5f73ffffffffffffffffffffffffffffffffffffffff82169050919050565b5f6110cd826110a4565b9050919050565b6110dd816110c3565b82525050565b5f819050919050565b5f6111066111016110fc846110a4565b6110e3565b6110a4565b9050919050565b5f611117826110ec565b9050919050565b5f6111288261110d565b9050919050565b6111388161111e565b82525050565b5f60c0820190508181035f830152611156818961106c565b9050818103602083015261116a818861106c565b9050611179604083018761100c565b61118660608301866110d4565b61119360808301856110d4565b6111a060a083018461112f565b979650505050505050565b6111b4816110c3565b81146111be575f5ffd5b50565b5f813590506111cf816111ab565b92915050565b5f602082840312156111ea576111e9610f77565b5b5f6111f7848285016111c1565b91505092915050565b61120981611003565b8114611213575f5ffd5b50565b5f8135905061122481611200565b92915050565b5f5f604083850312156112405761123f610f77565b5b5f61124d85828601610f9c565b925050602061125e85828601611216565b9150509250929050565b7f4e487b71000000000000000000000000000000000000000000000000000000005f52602160045260245ffd5b600381106112a6576112a5611268565b5b50565b5f8190506112b682611295565b919050565b5f6112c5826112a9565b9050919050565b6112d5816112bb565b82525050565b5f6020820190506112ee5f8301846112cc565b92915050565b7f4f6e6c79206f7261636c652063616e207265736f6c76650000000000000000005f82015250565b5f61132860178361103e565b9150611333826112f4565b602082019050919050565b5f6020820190508181035f8301526113558161131c565b9050919050565b7f4d61726b6574206e6f74206f70656e00000000000000000000000000000000005f82015250565b5f611390600f8361103e565b915061139b8261135c565b602082019050919050565b5f6020820190508181035f8301526113bd81611384565b9050919050565b7f4d61726b6574206e6f74207265736f6c766564000000000000000000000000005f82015250565b5f6113f860138361103e565b9150611403826113c4565b602082019050919050565b5f6020820190508181035f830152611425816113ec565b9050919050565b7f4e487b71000000000000000000000000000000000000000000000000000000005f52601160045260245ffd5b5f61146382611003565b915061146e83611003565b92508282019050808211156114865761148561142c565b5b92915050565b5f61149682611003565b91506114a183611003565b92508282026114af81611003565b915082820484148315176114c6576114c561142c565b5b5092915050565b7f4e487b71000000000000000000000000000000000000000000000000000000005f52601260045260245ffd5b5f61150482611003565b915061150f83611003565b92508261151f5761151e6114cd565b5b828204905092915050565b5f60408201905061153d5f8301856110d4565b61154a602083018461100c565b9392505050565b5f8151905061155f81610f86565b92915050565b5f6020828403121561157a57611579610f77565b5b5f61158784828501611551565b91505092915050565b7f4e487b71000000000000000000000000000000000000000000000000000000005f52602260045260245ffd5b5f60028204905060018216806115d457607f821691505b6020821081036115e7576115e6611590565b5b50919050565b7f4d61726b6574207265736f6c76656400000000000000000000000000000000005f82015250565b5f611621600f8361103e565b915061162c826115ed565b602082019050919050565b5f6020820190508181035f83015261164e81611615565b9050919050565b7f4d61726b657420656e64656400000000000000000000000000000000000000005f82015250565b5f611689600c8361103e565b915061169482611655565b602082019050919050565b5f6020820190508181035f8301526116b68161167d565b9050919050565b5f6060820190506116d05f8301866110d4565b6116dd60208301856110d4565b6116ea604083018461100c565b949350505050565b5f6060820190506117055f830186610fdb565b611712602083018561100c565b61171f604083018461100c565b949350505050565b5f6040820190508181035f83015261173f818561106c565b905061174e60208301846110d4565b9392505050565b5f6040820190508181035f83015261176d818561106c565b905061177c6020830184610fdb565b9392505050565b5f6040820190508181035f83015261179b818561106c565b90506117aa602083018461100c565b9392505050565b5f6020820190508181035f8301526117c9818461106c565b905092915050565b7f4e487b71000000000000000000000000000000000000000000000000000000005f52605160045260245ffdfea2646970667358221220a26136941029151d2e9c560f1c23cdd6af1722418ce53364780ce7193b420c3764736f6c634300081c0033","linkReferences":{}},"methodIdentifiers":{"buyShares(bool,uint256)":"68b89a2c","claim()":"4e71d92d","details()":"565974d3","noShares(address)":"56bc793e","outcome()":"27793f87","resolve(bool)":"0bede3f8","state()":"c19d93fb","totalNoShares()":"5ae01f82","totalNoStaked()":"410302ee","totalYesShares()":"d31dbc3e","totalYesStaked()":"9aa9604f","yesShares(address)":"818fa941"},"id":21}